:020000040000FA
:2000000000500020E9000000E1000000C9000000E5000000E5000000E5000000000000002E
:20002000000000000000000000000000E5000000E500000000000000E5000000E50000002C
:20004000452A0000E50000004DAD0000E5000000CD1F000039250000E5000000E500000059
:20006000E500000075AD0000E5000000E5000000E5000000E5000000E5000000E50000001B
:20008000E5000000E5000000E5000000E5000000E5000000E5000000E5000000E500000038
:2000A000E5000000E5000000E5000000E5000000E5000000E5000000E5000000E500000018
:2000C000E5000000E5390000044B1A68B2F5806F03D01B689B0500D4FEE7704728ED00E05B
:2000E000FEE700BFFEE700BF08B509F03DF8104A104B9A420DD2D0430F4918440B4620F035
:2001000003000430084453F8041B834242F8041BF9D10A480A494FF000028842B8BF40F8AB
:20012000042BFADB01F0ACF9FFF7CEFF08BD00BF00000020A20A00203EE40000A80A0020FE
:20014000003D002038B50D460446054803F090FC2A462146BDE83840024803F089BC00BFB7
:2001600054DC000068DC0000F0B5304C97B0E17994F805E063782278A7792679E0780591B6
:20018000A1782B4DCDF80CE004970296019000912846284903F08AFCE379A27940F25C74F7
:2001A000254F264E3846264903F080FCB4846C462448254A254B05213563B06286F82C103C
:2001C0007263B36301F0D6F8DFF894E006F110050FCDCDF834E04FF0070ECDF830E00DF142
:2001E0003C0ECDF82CE00FC40FCD0FC4159795E8070084E80700DFF86CC0DFF86CE0144D38
:200200001449154A154BCDF83CC0CDF840E0119512911392149396E80F0000F0C1FD3846CE
:20022000002100F0FFFB17B0F0BD00BF5C3B0020F40A002080DC0000080B00203034002098
:20024000A4DC000028040020B8DC0000CCDC000000DD00000CDD000018DD000024DD0000DA
:2002600045010000E8DC0000F4DC000038B503880446FBB1782B19D1174D184829884B1CCD
:200280002B8003F0F5FB2A881549164803F00EFC002301221349144800F076FA134804F0B8
:2002A000AFFAA0B978232380012038BD00230380032038BD0E4803F0DBFBFFF755FF802120
:2002C0000A4804F07FFA78232380012038BD074804F082FAE6E700BFF433002058DD000044
:2002E00070DD0000D00A0020080B0020E40A002030DD000010B4084A084C13681918A14270
:2003000003D81160184610BC7047054B0C221A604FF0FF3010BC70475804002000500020DB
:20032000F83C002004381A282DD8DFE800F0112C2C142C171A2C1D2C2C2C2C2C202C2C2C8C
:200340002326292C2C2C2C2C0E00104B0B6070470F4B0B6070470F4B0B6070470E4B0B6008
:2003600070470E4B0B6070470D4B0B6070470D4B0B6070470C4B0B6070470C4B0B60704765
:200380000B4B0B6070470B4B0B607047C4DD0000B0DD00000CDE000018DE0000B8DD0000CA
:2003A000D8DD0000E0DD0000ECDD0000F4DD000000DE000028DE0000F8B507460C4E0024D5
:2003C00001E0642C10D056F8340039460DF0C8F9E50001340028F4D135446B7913B90120BC
:2003E0006871F8BD0020F8BD4FF44875F4E700BF1C0B002070B5144DC0B06E6B30460DF077
:200400008DFAF92802D9002040B070BD044607233146024610260DEB03008DF805308DF879
:2004200006600DF0A9FAE31CDBB240A90C4428461A46002501A98DF8043004F8F95C06F054
:2004400061FB012040B070BD2010002070B5124DC2B0AE6B30460DF061FAF92802D90020B9
:2004600042B070BD04463146092302460DF106008DF805300DF080FAA31CDBB201AA1444A4
:2004800028461A4601A900258DF80430A57006F039FB012042B070BD2010002030B5134DF2
:2004A00089B02C6B162320468DF805300DF036FA214602460DF106000DF05EFA20460DF07B
:2004C0002DFA08AB034400220DF1060003F81A2C0DF024FA0230C3B21A46284601A98DF8D5
:2004E000043006F00FFB09B030BD00BF2010002038B5174B1D7805BB164C2378042B12D958
:200500001548257004F08EF8144B1B78012B0FD0134B2A461978134804F0E6FABDE83840C7
:200520000D4804F047B8FFF7B9FF2378013323700948BDE8384004F03DB8064900221A7011
:200540000A70FFF7ABFFBDE83840034804F032B89E0A00200A3400205C1000209F0A0020C0
:20056000063400204804002070B51C4A88B0127804238DF801308DF8023012B10C238DF85D
:200580000230174C012694F82C008DF8036005F009F8256BADF8040028460DF0BFF929463E
:2005A00002460DF106000DF0E7F928460DF0B6F908AB034400220DF1060003F81A2C0DF09A
:2005C000ADF90630C3B21A46204669468DF8003006F098FA304608B070BD00BF09340020A1
:2005E00020100020F0B51F49C1B001240B4602E00134642C33D01A7B0833FF2AF8D1A7B2F2
:2006000051F834000DF08AF9F9280546154E04D8154B1B681B780A2B02D0002041B0F0BDF7
:20062000384600278DF80130ADF8027004F0BAFF56F83410ADF804002A460DF106000DF0EF
:200640009BF9AB1DDBB26D441A4669460748AF718DF8003006F056FA012041B0F0BD27465B
:20066000CEE700BF1C0B0020703400202010002010B50B2382B0044608468DF8013004F044
:2006800091FFADF80200204604F08CFF02A90722ADF80400002301F8082D04488DF8063069
:2006A00006F030FA012002B010BD00BF201000202DE9F04F0646C3B008468A4693460193CC
:2006C0000DF02CF92C4D5FFA80F84FF0000902E0B9F1640F4ED055F8390031460DF040F817
:2006E0004FEAC904244F09F101090028F0D13C442079B8F1F80F36D8019BBBF1000F03F172
:2007000001095FFA89F94FF00C020CBF00231023B9F1030F8DF8092096BF184A002212F839
:20072000092013448DF80A3004F03CFFADF80B00002004F037FF08F1010208F108085146B5
:20074000ADF80D005FFA88F80DF10F000DF014F9424602A90A488DF8088006F0D3F9012082
:2007600043B0BDE8F08F074801F04AFD002043B0BDE8F08F0020BCE71C0B0020ACDD000011
:20078000201000205CDE00002DE9F843104C2478072C02D00020BDE8F883984691460F4637
:2007A00005460C4E002401E0642CF3D056F8340029460CF0D5FF01340028F5D143464A463F
:2007C00039462846FFF774FF0120BDE8F88300BF9F0A00201C0B00202DE9F041074682B0ED
:2007E000194E002401E0642C2CD056F8340039460CF0B6FFE500DFF8508001340028F2D1A3
:2008000045442C791222002320468DF801208DF8023004F0C7FEADF80300204604F0C2FE15
:200820009DF8023002A90722ADF80500013301F8082D06488DF8023006F064F9012002B0E6
:20084000BDE8F0810024DDE71C0B00202010002038B5234D2B78023B082B14D8DFE803F0ED
:2008600022051314131313132A001E4C2378042B0ED8FFF779FE03231B482B7003F09AFE7E
:2008800023780133237038BD164C2378042B21D90023164A2370117815481A46BDE8384062
:2008A00004F022B90F4C2378042BF1D8FFF75CFE0223E1E70B4C2378042BE9D80D4B0E4AAC
:2008C0001B685878197952F83000FFF785FF0A230A48D2E7FFF786FE05230948CDE700BFA1
:2008E0009F0A00200C3400207C1000200634002048040020703400201C0B0020F00F002033
:200900003C0E002030B5164B0546C1B0002002E00130642804D01A790833FF2AF8D180B2E6
:20092000002312228DF802308DF8012004F03AFEADF8030028460CF0F1FF0446053402460A
:200940002946E4B20DF105000DF016F82246694604488DF8004006F0D5F8012041B030BD9A
:200960001C0B002020100020F0B51D4C85B023688DE803004BB100229B680132002BFBD14F
:20098000642A02DD184605B0F0BD0C200CF054FA0246144B9DF801009DF805609DF8047074
:2009A000114D1978507056719DF8000017712E68002797604F1C51801F7010706EB1B26074
:2009C00010782A6003A9FFF7ADFC08485188039A03F04EF8012005B0F0BD2A602260F1E754
:2009E00070340020113400206C3400207CDE000000B50A4B83B01E2218608DF804108DF8A1
:200A0000002002AB13E90300FFF7AEFF10B9044803F02EF8012003B05DF804FB180B0020CE
:200A2000A4DE00002DE9F041884682B0232106460CF02EFE38B141463046FFF7D9FF012060
:200A400002B0BDE8F0812B2130460CF021FE0028F1D10446184F01E0642C0CD057F8340086
:200A600031460CF07DFE013405460028F4D13046FFF7A2FC20B90020E2E70135642D07D0B1
:200A8000314657F835000CF06BFE0028F5D1EDB212238DF800308DF804808DF8015002ABF3
:200AA00013E90300FFF760FF08B10120C8E7034802F0DEFFF9E700BF1C0B0020A4DE0000D7
:200AC00070B5174C82B02568AE68AEB1154A01A913782878013B1370FFF724FC2368019A2B
:200AE0005988114802F0C4FF236828469B6823600CF0AAF902B070BD0A4B287801A91E70DD
:200B0000FFF710FC2368019A5988074802F0B0FF064802F0ADFF064B26601E6002B070BDBC
:200B20007034002011340020C8DE0000ECDE00006C3400200B4BFF2003F54671002218738B
:200B40009A605A7308338B42F9D110B5064C236823B1FFF7B5FF2368002BFAD1034B0022EB
:200B60001A7010BD1C0B002070340020113400202DE9F0474378C0B0053B122B32D8DFE8E8
:200B800013F039004B0031005600310061009D00C30031003100310031003100310013001C
:200BA000310031003400E100C379032B1AD86E4AD35CBBB10379002B00F0CA806B4A6C48C5
:200BC00002EBC3030221026859711378122B09D1684B1B780A2B05D1674B00221978674804
:200BE00003F082FF40B0BDE8F087FFF757FC40B0BDE8F0878378032BF4D85B4AD35C002B2C
:200C0000F0D05C4B1B78022BECD15D4B002219785A4803F069FFE5E7564B1B78032BE1D1B8
:200C2000584B00221978554803F05EFFDAE7514B1B78042BD6D1544B002219784F4803F0CF
:200C400053FFCFE703784779063B13F0FF01C6786D460AD04C1E421D6C440DF1FF3312F88F
:200C6000010F03F8010FA342F9D1DFF800810022434614466A5402E00134642C03D01A7982
:200C80000833FF2AF8D128460CF048FE00F1010948460CF0D1F882464A4629460CF0BAFBB1
:200CA00008EBC4030122314638461E715A7148F834A0FFF7DDFC40B0BDE8F0878379032BEF
:200CC00090D8294AD35C002B8CD0C478274A002341790832994203F1010308BF02F8044CDB
:200CE000642BF5D1224B1B681B780A2B7FF47AAF204B1B78052B7FF475AF244B0022197864
:200D00001E4803F0F1FE6DE703780679073B13F0FF046D460AD0611E821D69440DF1FF336D
:200D200012F8010F03F8010F8B42F9D10F49184B002251F836001B682A552946984740B05B
:200D4000BDE8F087134B01221A7040B0BDE8F087074B1B681B781E2B7FF444AF054B0722D0
:200D60001A70FFF7ADFE3DE7A8DD00001C0B0020703400209F0A00200F34002048040020FC
:200D800012340020083400201534002016340020EC0F00209E0A00200198FFF7E9BE00BFE6
:200DA00084B02DE9F04F89B0229D634F239E634C0DF1480E8EE80F003D802660219B65B1A2
:200DC00005F1804001385E4A03EB8000043B53F8041F834242F8041FF9D15A4F12AE3C468A
:200DE0000FCE0FC40FCE0FC40FCE0FC496E8070084E80700BB6A544C19880A0A42EA012222
:200E000022805988386B0A0A42EA0122628099880A0A42EA0122A280D9880A0A42EA0122FD
:200E2000E28019890A0A42EA0122228159890A0A42EA0122628199890A0A42EA0122A281D8
:200E4000DA89130A43EA0223E3810CF067FD172805D9002009B0BDE8F04F04B07047204651
:200E600005F084FC394B1B78002B59D07B6B354A23B1936B13B1364B01221A7008AB042290
:200E800003F8182D93E80300FFF76EFD7B6B2D4A8BB1936B7BB108AB1E46072203F8102DF8
:200EA00093E80300FFF760FD092306F8083D96E80300FFF759FD3DB3264CDFF8ACA0DFF8C9
:200EC00084B04FF0000906AE4FF00A0813E0DBF83820A2B11A782168023A4AF832108DF8C0
:200EE000188096E80300FFF73FFD09F10109043450B14D4508D07A6B174B002AE7D11A7845
:200F000021684AF83210EAE7144B00221978144803F0EAFD012009B0BDE8F04F04B0704782
:200F2000BB8C1048224600901946384605F0FCFD10F0FF0F9AD18CE7F6330020EC0F0020FF
:200F4000580E0020201000201010002014340020093400205C0E0020113400201034002063
:200F600048040020990D00001C0B00202DE9F041038890B00546002B3AD040F246429342F7
:200F80003DD1994E0C4633788B4200F09280974B1B78A34200F0C780954B1B78A34200F0B7
:200FA000BA80944B1B78A34200F00381DFF89C8298F80030A34200F099808F4B1B78A34237
:200FC00062D08E4F3B78A34200F044818C4B1B78A3421AD08B4B1B78A34241D08A4B1B78B5
:200FE000A34200F0EE80894B1B78A34200F0B38040F2464301202B8010B0BDE8F0810023BF
:201000000380032010B0BDE8F081814ED6F800E09EF800300C2BDDD17E480023024603E018
:201020000133642B00F0928111790832FF29F7D1013B9EF8052050F8330000329EF80430C8
:2010400018BF01220021FFF733FBFFF739FD3368002BCDD0397800226F4803F045FDC7E755
:201060006B4B1B681A78122ABDD16A4A5878197952F83000FFF7B0FB684C0A260023684AF1
:201080004FF4C07167483FE0614F3B681B780A2B97D1FFF715FD644803F0C4FA3A68002A5A
:2010A00000F04881554B002219785B4803F01CFD9EE75A4F3B78012B7FF469AFFFF754FA99
:2010C0005A4B5A6B002A00F03E819B6B002B00F03A8103233B700023514A4FF49061544892
:2010E00003F05CFA534B00221A7055E7484B1B681B780A2B7FF465AFFFF774FA474C484A33
:201100004948052600238021267003F047FA494B00221A706CE7414B04221A70FFF76AF95D
:20112000FFF7CEFC64E73D4B062241481A7003F079FAFFF7C5FC3D4A002392F82C103E48CE
:201140003E4AC90103F02AFA2C4B00221978324803F0CAFC20E76C46354803F063FA3248C9
:2011600003F060FA344803F05DFA2E4803F05AFA2A49334A01230B701370FFF7DBFC314A45
:20118000314B12681B88294FDFF8C4E00D920C9307F110060FCECDF82CE00FC40FCE0FC446
:2011A00096E8070084E8070097E80F00FFF7F8FD1EE7FFF785FCFFF749F9184B02221A70F9
:2011C00016E7134E33681B78122B7FF40CAFFFF777FC144803F026FA3368002B7FF43AAF1E
:2011E0000E4B07221A7003E70B3400201234002008340020153400201634002010340020A1
:201200000E340020073400200F34002006340020703400201C0B0020480400209F0A002014
:2012200051080000F00F00203C0E0020201000207C1000200C3400205C100020F1040000EF
:2012400014340020EC0F0020F6330020133400205C0E00203E4C0FA923681878FFF762F824
:201260000F993C4802F004FC22681378043B1A2B59D801A151F823F01B1300002713000020
:2012800027130000F10F000027130000F10F00000113000027130000F3120000271300004D
:2012A00027130000271300002713000027130000E5120000271300002713000027130000A1
:2012C00027130000271300002713000027130000271300002713000027130000271300003E
:2012E0000F1300001C4B002219781C4803F0FCFB7EE61B4B00221978184803F0F5FB77E647
:2013000098F800100022154803F0EEFB70E6154B11791868FFF7F6FA6AE6317800220F48BA
:2013200003F0E2FB64E6104B072210481A7002F09FFB5DE60E490C4B0724097807481C7029
:2013400003F0D2FB54E602233B70C4E6632370E67034002084DF000007340020480400204F
:201360000E340020180B00209F0A0020A4DF00000D34002008B500211B4803F019FB03F0E0
:201380000FFB1A4B187003F00BFB194B187003F007FB184B187003F003FB174B187003F0C3
:2013A000FFFA164B187003F0FBFA154B187003F0F7FA144B187003F0F3FA134B187003F0F7
:2013C000EFFA124B187003F0EBFA114B187003F0E7FA104B187003F0E3FA0F4B1870BDE875
:2013E0000840FFF7A7BB00BF480400200B3400201234002013340020163400201034002028
:201400000E340020063400200F340020073400200D3400200834002015340020F0B5002760
:2014200006463C463D4683B0304600F0D3F90195019B9C4206DD00BF019B01330193019B44
:201440009C42F8DC304600F0CFF90195019BC4F5C874A34206DA00BF019B01330193019B01
:20146000A342F8DB0137B7F5487F06D0B7F5C87FCCBFC7F548743C46D6E703B0F0BD00BFDF
:201480002DE9F041634C84B02368012162485B6898472368012211461B685F48984708F023
:2014A000D7F901F0E7FA01F07FFA00F091FB01F0B7FA00F085F9594959485A4A0123036026
:2014C0000B6018461368FFF7A9FF08F0C5F900F0F1FC00F01DFC03F03FFB00F0BBFD03F0C6
:2014E0008BFA41F2342002F093F900F0F1FF03F0BFFB4D4800F084FE4BF2016200214B487A
:2015000002F0B6FA4A4800F07BFE0021494803F04FFA03F009F802F0BBFF0220FFF77EFF0B
:20152000454802F0A5FA454B454C186800F068FE444802F09DFA444B186800F061FE434898
:2015400002F096FA2168424802F092FAE469A04720B1A04701463F4802F08AFA0A2000F02E
:2015600047FE002608F04EFE02A808213A4D3B4F019600F07DFE9DF80F309DF80E4002AA73
:2015800003CA43EA0424D7F82C802860696002204AF6CD31C04721460320C047192101200A
:2015A000C047082202A97B6B0B209847BB6A01A90120984701992A4802F05AFA294B214663
:2015C00029481C8002F054FA284B6A6829685A60196008F011FA3146254803F0E9F90420D5
:2015E000FFF71CFF3146234803F0E2F9224802F043FF00F03DFD0820FFF710FF03F016FA32
:20160000044600F069FD14F0FF0FF7D101F094F8F4E700BFD801001000400340080009407C
:201620000C4009402C2009407CE00000A0E00000B8E0000038050020D4E0000010E3000008
:20164000C0E30000DCE0000088E30000E4E000007CDC0000ECE000005C3B002010E200002F
:2016600010E10000F833002024E1000084340020580500205C0400204CDC00002DE9F041E5
:2016800004880646772C30D07E2C27D024B1002303800320BDE8F08103F082F92F4F304B13
:2016A000304D3A6818702C60002A55D02346A0462D4C04F8038093680021802098472B6833
:2016C000013357F823202B60002AF2D1DBB2274A1370772333800120BDE8F081204B1B78C9
:2016E0008B421CD00120BDE8F081DFF880801D4D98F800201E4F00233B602B60002AE8D071
:20170000194CE256002A18DB2B6898F80020013393422B60F5DB3B68002BECD1D9E7114DBF
:20172000114CDFF84880124F2B683A68E15C013201F07F01E1543A60E7E7084A084952F8AC
:2017400023200978002003F0CFF90028ECD17E2333800120BDE8F0811346B8E76C040020F2
:20176000FC3C00209C1000207434002017340020A010002010B40E4B1C7864B10D4A1368AA
:20178000984213D0002303E052F8041F88420BD00133A342F8D1084A0848135D63F07F03AB
:2017A000135510BC03F0CCB91C46F4E70024F2E7173400206C040020743400205C04002000
:2017C00008B500F01BF8024B00221A7008BD00BF18340020034A137803431846137000F071
:2017E00031B800BF18340020034A137823EA00031846137000F026B8183400200D4B1A68F8
:2018000002B1704710B501220B4C1A6023681920DB6B984723681B20DB6B9847236807201F
:20182000DB6B984723680620DB6B9847034B044A1A6010BDA4100020B4010010A02002402F
:20184000C000000A0D4A0E490E4B08701A60C20744BF4FF0007243F8102C810703D50A4B1C
:201860004FF000621A60420702D5074B80221A60030702D5044B40221A607047C000000A32
:2018800019340020A0200240902002400B2838B521D00F2834D012284CD0132852D00C28B4
:2018A00000D038BD394C204603F080F90028F8D00421204603F066F9354B1D68C5F300354D
:2018C000CDB100F071FAA368C31AE3603148BDE83840FFF74FBF304C204603F067F900280D
:2018E000DFD00421204603F04DF9294B1D68C5F3C025002D40D100F057FAE560A06038BD26
:20190000264C204603F052F90028CAD00421204603F038F91E4B1D68C5F3C035002DEAD0BE
:2019200000F042FAA368C31AE3601D48BDE83840FFF720BF4FF080524FF48041BDE83840C7
:2019400000F024BE174C204603F030F90028A8D00421204603F016F90D4B1D68C5F3C04509
:20196000002DC8D000F020FAA368C31AE3600E48BDE83840FFF7FEBE00F016FAA368C31A60
:20198000E3600A48BDE83840FFF7F4BEA8100020C02002407CE10000B8100020C8100020B6
:2019A0003CE10000D81000204CE100005CE1000028B1012806BF054BD86800207047044B1B
:2019C0001868C0F3C02080F001007047B8100020C020024028B1012806BF054BD86800204B
:2019E0007047044B1868C0F3C03080F001007047C8100020C020024008B100207047034B9E
:201A00001868C0F3804080F001007047C020024028B1012806BF054BD86800207047044B0C
:201A20001868C0F3C04080F001007047D8100020C020024028B1012806BF054BD8680020AA
:201A40007047044B1868C0F3003080F001007047A8100020C020024008B5034B1B685B68AA
:201A60009847C0F3804008BDB40100108138012801D9002070470B20FFF7EEBF8138012847
:201A800001D9002070470F20FFF7E6BF8138012801D9002070471220FFF7DEBF8138012891
:201AA00001D9002070471320FFF7D6BF8138012801D9002070470C20FFF7CEBF802870B5A8
:201AC00014460AD0812807D1E1B9BDE87040184B10461B685B6B184770BD154D15490123F0
:201AE00093402A680B60936B204698472B6820460021114A1B689847E0B21049BDE87040BC
:201B000000F078BF0A4D0B49012393402A680B60936B204698472B6820461B68064A0021CF
:201B200098472B682046BDE870401B6B184700BFB4010010E0200240004007208D180000C1
:201B400008B50B22FFF7BAFF012008BD08B50F22FFF7B4FF012008BD08B51222FFF7AEFFF5
:201B6000012008BD08B51322FFF7A8FF012008BD08B50C22FFF7A2FF012008BD10B50A4C87
:201B80001A202368DB6B9847084A23684FF0806111609B6B1720984723684FF4C0419B69FE
:201BA0001720BDE810401847B4010010A020024010B5064C042023685B69984723680420BB
:201BC0005B6B98470128F9D110BD00BFB801001070B507F03DFE0646FFF7EAFF124B4FF4F6
:201BE000A0601B68DB699847104B0121104A196013689B07FCD50F4D0F4800F0C9FE2B6804
:201C00000D20DB6B0D4C98472B684FF400522260DB6B142098474FF48013236006B170BDD9
:201C2000BDE8704007F018BEB80100102820086028200840B401001088040020A020024006
:201C40000120704710B503210022082007F01EFB044B00221A6007F077FB044607F0D6FA04
:201C6000204610BD1C900C40802838B51CD0812818D10C46194D1A202B68DB6B98472B68E9
:201C800017201B684FF4C042002198472B6817209B6B98477CB9124B4FF080621A60114810
:201CA00000F092FA012038BD0C4B1A201B68DB6B9847012038BD0C4B4FF080621A60094800
:201CC00000F02CFA094B0921586C07F091FD4FF4FA6000F0ADF8012038BD00BFB40100105B
:201CE000A02002409C040020902002404800001010B5064C042023685B69984723680420C0
:201D00005B6B98470128F9D110BD00BFB8010010F8B51A4A00200021C2E90001184B042051
:201D20001B685B6B9847012801D0FFF7E1FF144B00201B68DB699847124B0121124A196032
:201D400013689B07FCD5114A11491368096823F4807323F001030F4C13600B6820460E49D5
:201D6000984740F221200D4D0D490E4B04273126012227602E6008601A60F8BDA80A0020E5
:201D8000B801001028200860282008400C000140C801001000000140002100043C00014031
:201DA000080001400400244310B40949094C0B68226808688342FAD1DB01074903EB526239
:201DC0000023C1E9002310BCD1E90001704700BF082009400C200940A80A002010B50B4945
:201DE0000B4C0B68226808688342FAD1DB01094903EB52620023C1E9002302F00BFD00B91C
:201E000010BDBDE8104002F0D7BC00BF082009400C200940A80A002010B507F019FD034BE4
:201E20001C6808B907F018FD204610BD0820094038B51A4B05461B6804205B6B984701289B
:201E400001D0FFF755FF154B154A1B680020DB6914689847134B0121134A04F00104196017
:201E600013689807FCD5114B11491A460D60196841F4807119601368D905FCD404B138BD01
:201E8000064B20461B681B6A9847064B0121064A196013689B07FCD538BD00BFB8010010FD
:201EA0005420084028200860282008400C0001402C0001402DE9F04107F0CAFC1D4E1E4B94
:201EC0001E4F32680124002580464FF480314FF480703D601C60186019601368284623218D
:201EE0009847336820461B6824219847336825211B6802209847124A1249136843F4E0238A
:201F000013600D6007F02EFD0F4B1049104A1B6800F50070086014603C601B6914209847BB
:201F2000B8F1000F01D0BDE8F081BDE8F04107F093BC00BF840100100420094000002443BE
:201F40000020094008200940B00100101C200940A0022443431E012B10B419D9042801D018
:201F600010BC704700231A4610F004001CBF0E4C216013B10D4B0121196012B10C4B0122AD
:201F80001A600028ECD00B4B01221A6010BC704710F0010302D0084A0123116010F00202AC
:201FA000E2D0064C2160DFE72020094080022443A0022443C0022443182009401C2009402C
:201FC000014B1868704700BFE810002008B508F035FC184B1860FFF701FF174B1B686BB9E7
:201FE000164B1B68E3B9164B1B6833B11549164B00204FF4803208601A6008BD124B4FF47E
:2020000080721A6007F0AEFC00F205200F4B20F4FF7020F001001860084B1B68002BE2D083
:202020000B49094B0020012208601A6002F096FDD9E700BFE8100020A000244380002443C9
:20204000C0002443C0022443042009401C2009408002244303490448044B012208601A6069
:20206000704700BF00000840FFFF0F00000C0840F8B507F0EDFB124AB0FA80F01368012B98
:202080000BD0104C104D1149114A0123400925600B601360C3070FD4F8BD0E4F094D0A4EBA
:2020A0000A4C0B49400940F0020017602E6023600B601360C307EFD5BDE8F84007F0CCBBAC
:2020C000000C084000000840FFFF0F000C0008400401004351E5CC1A03490448044B012295
:2020E00008601A60704700BF00000840FFFF0F000C00084008B5064802F0D0FD30B1054BE4
:202100000121054A196013689B06FCD508BD00BFEC100020000222431410094070B5054604
:2021200007F096FB0B4C294606460B4802F0B8FDFFF7E0FF236868681B689847236868681E
:202140009B6898471128F9D106B170BDBDE8704007F082BBA0010010EC10002038B550B96A
:202160000446134802F09AFD28B1234605C813430028FBD19BB90F490F480B680F4D104CAA
:202180000068002223F4C0530B602A602260C368012098470B4A13689B06FCD438BD054A64
:2021A000136823F4C05343F40063136038BD00BFEC10002004100940A001001080012243A9
:2021C000000222431410094038B5054607F040FB04462946054802F0B5FD0020FFF7BEFF44
:2021E00004B138BDBDE8384007F036BBEC10002010B50446C0B200F07FF9204610BD00BF39
:2022000070B506460024451E04E015F8010F00F073F9013430460BF081FBA042F5D80A206E
:2022200000F06AF900F07CF90128FBD0204670BD70B50446B0B10078C0B1A9B100256618A9
:2022400004E014F8010F38B1B44205D000F054F9631C05F10105F4D100F062F90128FBD00E
:20226000284670BD0546F7E70D46F5E70546F3E710B40B4B0B4C13F8012FFF2A0DD1A342AE
:20228000F9D1094A39B11144013801390B78914200F8013FF9D110BC7047044AF2E700BFAE
:2022A000C7FF0100CFFF0100F0120050C8FF010038B50C4D02202B685B6998472B6802201B
:2022C0005B6B984701280446064BF7D11B684FF40070DB699847044B044A1C6013689B073E
:2022E000FCD538BDB801001028200860282008402DE9F04340F2F275DFF8DC8083B0FFF7D1
:20230000D7FFD8F800302A4EDB682A4898473368294C5B69152098472368DFF8C090274FCB
:2023200023F4FE63D9F8002023F0020323603D60D36B032098472249D9F800204FF0FF33EF
:20234000082008600093D2F84090022103221948C847D8F800206023D2F8048019494FF4A2
:20236000E1321448C04740F2011240F2013E1649164B142008601968154841F0100119603C
:2023800003681449002B0CBF134673460B603D60036853B12368326843F05003236013694C
:2023A000152003B0BDE8F043184703B0BDE8F083B001001000100040381000404410004006
:2023C00090200240006CDC02341000402C100040F010002030100040D0010010B40100107B
:2023E00008B5064B02201B685B6B9847012803BF034B186800F00100002008BDB80100102D
:202400006C20084038B50446FFF7EAFF18B1264A13681907FCD4032C03D0244B1B6803B186
:2024200038BDFFF7DDFFF0B9214D4FF400702B681B6A9847032C2CD01E4B01211E4A19607D
:2024400013689B07FCD5032000F0BEFA022000F0BBFA4FF0FF3000F0B7FABDE838404FF091
:20246000FF3000F0B1BA154B15481B68DB689847144B15201B685B69984740F2F270124AC6
:202480001249136823F4FE6323F0020313600860CAE72B684FF400709B6A98472B684FF44A
:2024A00000701B6B9847C7E718100040F0100020B80100102820086028200840D001001027
:2024C00000100040B0010010381000404410004010B507F0BDF90446054800F059FA054B33
:2024E00000221A6004B110BDBDE8104007F0B4B9A4040020F010002010B50446FFF770FF09
:2025000008B9FFF7F5FE044B2146BDE810401B680248DB69184700BFD00100100010004006
:2025200008B5FFF75DFF18B1024B1868C0F3C00008BD00BF1810004038B5FFF7B9FE40F2CB
:20254000F2710C4B0C4A1B68116013F0500F10D00A4C0B4D05E02B681B699847094B1B68D5
:2025600023B923680848DB06F5D538BDC0B29847F7E738BD40100040441000401810004054
:20258000D0010010F0100020001000402DE9F04740234FF0000882B00F461646CDF80080CB
:2025A0000193054607F054F9494A4A4BC2F80080444601204FF480714FF48032DFF8588112
:2025C000186019601A60D8F8003020463F211B6801349847042CF6D1DFF83C810024D8F8B4
:2025E000003020463F219B6801349847032CF6D1394B1B68FFF770FD384802F04FFB044668
:2026000030B1A368032003B198472468002CF8D16B1C0CD0324BAA0013430021314A1960A2
:20262000136846F000523A4328461B6898472E4EDFF8E89000243368C9F800409B69072094
:2026400098476846FFF76AFD00F08CFA00F03AFA264827490368326823F0030303600B6824
:20266000244D23F00F030B609369382098472C600120FFF773FDDFF8A8A01F481F4A4FF0E5
:2026800001081F491F4B2C60134FCAF80040C0F8008014601C4A0C60C9F800401C603B68D1
:2026A0001A491368096823F0030313604B68184803219847174A33682C60CAF80040C2F8E5
:2026C00000809B6B3A68984702B0BDE8F08700BF00002443042009402C200940F4100020D9
:2026E000001A4442B4010010B80100100010094008100940401009408801044340012243E3
:20270000440122430800094024220840D80100100040034018100940840100100C40094029
:2027200020042243034A136823F00403136030BF704700BF10ED00E070B507F089F802F0EA
:20274000C9F918B1BDE8704007F086B8804802F0A5FA0225044648B1636823B19847A84239
:2027600028BF2846C5B22468002CF5D108F066F8784B04461B68002B40F0898002F04AF891
:20278000002840F0B2800346012D00F09380022DD8D1002840F0C780611E2846FFF7DAFB06
:2027A0006B4802F07BFA0625044600287BD0A368022003B198472369246825EA0305002CFC
:2027C000F5D1FFF789FC6B0705F006046ED4002C40F0A38000F0C6F90020FFF7BFFC5E495F
:2027E0005E4A0B685E4823F003030B601368016843F00F0313608B6939209847594A5A4986
:2028000000231360184613600B6006F0A9FD062C00F08E80554C564D564E2B68236832687A
:2028200023F00303236053680321534898474C4B1B689B6B98472B6806F0C0FE4F4A336829
:20284000002111604C485B680121984723684C4A012143F00303236011602B6806F0E6FEB1
:20286000FFF748FCFFF7BAFAFFF736FC384802F015FA044628B1E36803B198472468002C12
:20288000F9D106F0E9FFBDE8704006F0E5BF3D4B1B681B1A022B3BD4A3F28F23002BBFF6FE
:2028A0006DAF012335E0FFF717FC0624344B00221A608CE7002842D06FF00702121BDA4217
:2028C0003AD404F58031CA1A11EA220138BF19460220FFF73FFB2C4A136823F00403136018
:2028E00030BFBDE8704006F0B7BF01F09BFF0646FFF75AFA361A002E7FF724AFFFF760FBEF
:20290000224A00EB4623121BDA421BD401203BE700239D4228BF1D4630E7114B20461B68D4
:202920009B69984756E719462846FFF713FB37E7022006F075FF6DE704F10801C8E704F502
:202940008031C5E7022DB7D0012D7FF4FBAEB3E7F4100020800224430010094008100940B9
:20296000B80100104010094020042243242208402C200940D8010010004003408001044315
:202980000C4009401820094010ED00E071FDFFFF0146014802F084B9F41000200146014865
:2029A00002F0D0B9F410002010B5054802F072F9BDE81040034B20211B6803201B681847FD
:2029C000F410002084010010431C0ED010B50446064B4FF4C0421B6800211B689847044A08
:2029E000A3001A430023136010BD7047B4010010001A444238B504460D4606F029FF01238C
:202A00000549064AA3400B6042F8245000B138BDBDE8384006F020BFE0200240F81000201A
:202A2000064B002103F1800243F8041F9342FBD1034B10201B681B69184700BFF4100020E8
:202A4000B0010010F8B5094B094F1D6800241D60012606FA04F32B42E0B203D057F82430A3
:202A600003B198470134202CF3D1F8BDE0200240F810002000B585B00022412302A80292B1
:202A80000393FFF74BFB042006F0A6FF032810D00321042006F078FF042006F09DFF032804
:202AA000FAD100901C234FF040520021044806F00DFF02A8FFF788FB05B05DF804FB00BF51
:202AC00000A00C4000B583B00022412368468DE80C00FFF723FB042006F07EFF022808D0C0
:202AE0000221042006F050FF042006F075FF0228FAD16846FFF768FB03B05DF804FB00BFFA
:202B000000B583B00022412368468DE80C00FFF705FB012006F060FF012803D0012103206B
:202B200006F032FF6846FFF74FFB03B05DF804FB00B583B00022412368468DE80C00FFF7E6
:202B4000EDFA012006F048FF012803D0044B986B06F038FE6846FFF737FB03B05DF804FBD9
:202B60004800001010B582B041236846002401930094FFF7D3FA0320214606F005FF012040
:202B800006F02AFF18B1044B986B06F01BFE6846FFF71AFB02B010BD4800001008B507F0A8
:202BA0007BFE30B1044B5B88022B14BF0220012008BD022008BD00BFB411002070B582B09F
:202BC00007F06AFE40B901A9134807F06DFE01280AD0002002B070BD0F4C6388022B08BFFA
:202BE0000120F0D102B070BD07F028FE6FF03F05094C2D1A03E007F021FEC54209D56088F2
:202C0000054E0228F7D1A0F10200B0FA80F04009E8E77088F7E700BFB411002008B5B32997
:202C200094BF0A46B422014602480AF0F3FB002008BD00BF3612002070B5054606F008FE2A
:202C400004462DB1124A134B12681A6094B170BD0F4B104D1E68002116F180402A684FF036
:202C6000000341F10001994208BF904206D32E60002CECD1BDE8704006F0EEBD07F0DEFD92
:202C8000054A064913680860013313602E60EFE70430044078110020B01100201C14002056
:202CA00030B589B002A840F60202182108F03AF8164B9DF81A201B689DF81B401979144D19
:202CC00061F3050211468DF81A205A7902A862F387118DF81A109A7901A9012362F34704E9
:202CE0008DF81B4007958DF8163007F0DDFD012802D0002009B030BD02A807F01FFEA0F1AC
:202D00000100B0FA80F0400909B030BDB8040020D004002008B5FFF7C3FF012801D000204A
:202D200008BDFFF74BFFC0B208BD00BF70B50E4D0E4E2C68002006E02379022B06D02468F7
:202D40002B689C420ED02379032BF5D133780120002BF4D1064801F0F3FE24682B68012068
:202D60009C42F0D170BD00BFA41100201C340020F005002010B582B007F0CEFF044607F072
:202D80008BFD08B902B010BD01A9084807F08CFD0128F7D1638803F44063002BF2D16388A2
:202DA00003F44063002BF5D0ECE700BF010001040B2807D00C2801D001207047042A11D0FB
:202DC00002207047082AFBD10029F9D0094B0139A3F1080013F8012D834201F8012FF9D10F
:202DE000002070470029EBD0034B00201B680B60704700BFE41100204015002042F2034342
:202E000010B584B0002402A801A902940394ADF8083007F049FD20B19DF90A30803302D0D4
:202E2000204604B010BD9DF80C0000F00C00A0F10400B0FA80F0400904B010BD10B582B09E
:202E400007F02AFD20B3144C6388022B03D01FE0FFF7D4FF18B107F01FFD0028F8D101A9F7
:202E60000E4807F021FD02E06388022B03D107F013FD0028F8D142F202426388934207D012
:202E800042F20740181AB0FA80F0400902B010BD012002B010BD00BFB41100200100010459
:202EA00030B585B007F0F8FCB8B10D4B5B88022B13D142F20345002401A902A80294039437
:202EC000ADF8085007F0F0FC38B19DF80A305B06F2D09DF80C0005B030BDFF2005B030BD33
:202EE000B41100200B2801D001207047082A01D0022070470029FBD008B50C4B083103F100
:202F0000080011F8012D03F8012F8342F9D107F0C3FC50B1064B5B88022B05D1FFF78EFF47
:202F2000FFF74CFE032008BD002008BDDB110020B411002008B507F04BFF012814D007F091
:202F4000ABFC88B1094B5B88022B0DD107F0A4FC30B9FFF7A5FFFF2806D0C0F3801008BD30
:202F6000FFF74CFF0028F4D0002008BDB411002008B502E0FFF742FF18B107F08DFC002813
:202F8000F8D1FFF75BFF07F0BDFDFFF7EBFD0E4B0E48197900220229428012D00C4B1A796D
:202FA000022A04BF00221A710A4B1A79022A04BF00221A71084B1A79022A04BF00221A716F
:202FC00008BD1A71EAE700BFFC120020B41100208C130020B01400202014002008B507F053
:202FE000F7FE012801D0FFF7C3FF012008BD00BFF8B507F0EDFE012830D0FFF781FD07F062
:203000004BFC38BB1E4A1F481F49204B92F805E047794E795D79012464F3830E64F383071A
:2030200064F3830664F38305882482F805E0106047710160C480D480CC804E710B601A60B5
:20304000DC805D71FFF774FD07F0EEFD012807D00020F8BD0E4B5B88022BD3D10120F8BD45
:203060000C4B1878003018BF012007F0FBFDFFF717FE0128ECD1BDE8F840FFF79FBD00BF73
:20308000FC1200208C130020B014002020140020B41100201C34002070B584B0072800F23C
:2030A000B380DFE800F01E61262F325C6B04574C217707F0F1FB10B36388022B1FD1FFF776
:2030C000BDFE012814BF0324002407F0BBFD0020FFF7B2FDFFF772FD01287DD0032004B0C8
:2030E00070BD012900F08480002977D0022004B070BD464C618607F0CFFB0028DCD10020E3
:2031000004B070BD414C2186D3E731F00702EDD13E4C3F48237EC1F3400561F30003DBB269
:2031200043F00203067865F38203657EC1F3800103F0870362F3C71362F3C7158E4265765C
:2031400023760170B5D1334B228B184603A95A8007F0AAFB002814BF00200320BFE731F02F
:203160000103C3D1C8B2BAE7A1F10B030F2BBDD8264CA37B9942C2D0A1739AE701F1150391
:203180001A2BB3D8244A6FF014030C2401E052F83430994232DD14F1FF34F8D207F07CFB62
:2031A00000289CD04FF000021B4B102503EBC40423796079A17903F03F0360F3871361F3E4
:2031C000470203A802A98DF80E308DF80F20ADF80C5007F069FB92E7204680E7019107F0AE
:2031E000F7FD01288BD0FFF7C3FE0199084676E7FFF7FEFE01287FF471AF80E7064B074AA4
:2032000003EBC4031360C9E7012068E7B41100201C3400209C110020A8E10000B8040020DF
:2032200081B130B50C4683B0102800F28580DFE800F05C57524D6C69474128221D838319D7
:2032400015100B000220704705230B60002003B030BD6FF014030B600020F8E71A230B608A
:203260000020F4E70B230B600020F0E7474B00201B780B60EBE7464B00201B785BB20B6085
:20328000E5E707F009FB002858D0424B5B88022B54D140F203430022694601A80192ADF82B
:2032A000043007F001FB01286CD06FF07F0323600320CCE7374B002093F91C300B60C6E7B6
:2032C000354B00201B681B680B60C0E7314B00201B8E0B60BBE72F4B00205B8E0B60B6E759
:2032E0002C4B00209B7B0B60B1E707F0D5FA30B1284B5888A0F10200B0FA80F040092060AE
:203300000020A4E700200860A1E70023214A0B60137E03F001030B60127E520744BF43F0E7
:2033200002030B601D4B1B78002B9DD00B68002043F004030B608AE7012088E7FFF758FE05
:203340000128B2D140F203430022694601A80192ADF8043007F0A8FA01280CD007F038FD99
:203360000128A2D06FF07F05FFF702FE256080357FF47AAF9CE79DF9025007F029FD012852
:20338000F2D1F3E79DF90250F0E700BF1B3400201A340020B4110020B80400201C34002004
:2033A00070B588B0054607F077FA002851D03E4B5B88022B08BF00264BD107F03FFA6FF083
:2033C0001F04241A07E0FFF719FD012848D107F035FAC44246D507F05FFA0028F3D102A82A
:2033E00042F60142182107F09DFC304C304B0022EDB28DF817502178069304929DF8143044
:20340000891A18BF012162F3030301208DF8143007F062FC02A801A907F046FA30B3207870
:2034200001E0002835D0BDF80A3003F44063002BF7D0BDF80A40A4B2B4F5105418BF0124A5
:20344000003018BF012007F05BFCC6B9204608B070BDFFF7CDFD012819D0012008B070BD54
:203460000028BCD0C6B9022008B070BD20780124003018BF012007F043FC002EE6D007F01C
:20348000A7FC0128E2D0FFF773FD2046E6E7064693E7FFF747F9C2E707F09AFC0128E2D008
:2034A000FFF766FDDFE700BFB41100201C3400203612002010B50C46B32998BF2246014678
:2034C00088BFB422034809F0A5FF2046BDE81040FFF766BF3612002010B507F079FC0128AF
:2034E00024D007F0D9F9B0B11B4B5B88022B03D011E0FFF783FC18B107F0CEF90028F8D187
:20350000FFF7CEFCFF2811D000F0030010F1FF3018BF012010BDFFF76BFD0128044607D053
:2035200007F056FC012801D0FFF722FD012010BDFFF7B6FCFF2805D000F0030010F1FF347A
:2035400018BF012407F044FC012803D0FFF710FD204610BD204610BDB41100202DE9F043A5
:203560004B4D83B080460F462E6807F095F930B1484B5B88022B02D10020FFF75DFB07F08E
:203580005DF9454C241A03E007F058F9C44208D53379022BF8D0032B06D0002003B0BDE8DB
:2035A000F0833379032BF8D12E68394A337A032B07D996F808905FFA89F9A9F10804BC427C
:2035C00007DD3368002013603071307203B0BDE8F0834046224606F1090109F01BFF09F1CF
:2035E0000302B35C09F1050956F809002B4F5BB23B700190B35CDDF80480294E294A03F050
:203600007F03B8F1404F3370D2F800900BD907F015F9254B1B68C3F17E4303F57203C34230
:2036200048BF09F1FF39DFF88CE06FF4BF70DEF800E010EB08004FF0FF3141F100010022FF
:20364000B0EB0E0061EBEE71121849EB0103190241EA12611002002343F6095209F05CFAE3
:20366000124B134A1B7810603BB12B6800221968204629601A721A7190E73978042049B21E
:2036800089B206F095FD3178032006F091FDECE7AC110020B4110020FAFEFFFF1A3400201E
:2036A0001B340020B01100201C1400201C34002040150020F42B002010B507F0EDF878B17C
:2036C0000E4B5B88022B0BD10020FFF7B5FABDE8104000230A4A4FF487310A4800F05EBF1A
:2036E000FFF786FC0128F2D10020FFF7A5FA07F06FFB0128EBD0FFF73BFCE8E7B41100208B
:20370000B93600007C110020F8B5304F3048FFF73FF907F06DFA38469022002109F054FF40
:20372000902200212B4809F04FFF902200212A482A4C09F049FF90220021294809F044FF80
:20374000284E294B00252946802220461F603760756009F039FF42F6010E42F20200072221
:2037600002236376227621491922214B278B2661A273B9266F22E6736161E276FF2101222E
:20378000A626A4F800E026775F801971A176627384F837201880FFF72BFC012802D02C46FA
:2037A0002046F8BD0446134807F0CAFA2046FFF743FA2B46104A4FF48731104800F0EEFEFB
:2037C00029460F4801F0F4F82046F8BDFC120020BC0400208C130020B0140020B411002095
:2037E00020140020A4110020AC110020EC1200209C11002048E20000B93600007C11002012
:20380000F005002008B500F08BF880B208BD00BF00F010B938B50C4D04202B685B69984754
:203820002B6804205B6B984701280446064BF7D11B6840F20140DB699847044B044A1C606E
:2038400013689B07FCD538BDB80100102820086028200840034B1B68002B14BF012002206A
:20386000704700BF44150020F8B503880446002B2ED0B3F5847F05D1184B1B788B4205D095
:203880000120F8BD002303800320F8BD144D2B6873B1144B144A1B6812685B6802201746C0
:2038A00098470026301847F100012B6898472E600E4B40F201401B689B6A98470C4B0121D6
:2038C0000C4A196013689B07FCD50B48FFF766F84FF4847323800120F8BD00BFA00A002048
:2038E00044150020CC01001004800240B80100102820086028200840FC04002008B5064B75
:2039000004201B685B6B9847012803BF034B1868C0F34000002008BDB80100103C2008405D
:2039200070B5274B1B689BB1264C0023224612F8011B29B90133042BF9D10020014670BD5B
:20394000214A002502EBC302E55492E8030070BDFFF7D4FF00282FD01C4A1D4B12681340B7
:2039600073B91C4A0121134611601A68002AFCD110464FF4807105F073FF174B01221A6060
:2039800005F066FF0646114A1368DB07FCD5134B134A1B6814685B680220984723460022EF
:2039A000141843F1000516B12046294670BD05F053FF2046294670BDFFF72CFFCCE700BFFD
:2039C0004415002048150020B00A00200880024001000080F09F0240A8025042CC010010E2
:2039E0000480024038B50E4D00240E4A2C6013680D4923F00103096813604B693120984701
:203A0000224620464FF4807105F02AFF0122074B2A6019782246BDE83840054801F064B817
:203A2000A80250420C800240B0010010A00A00201005002010B5074C2378802B00D010BDC1
:203A400000F0AEFF207000210348BDE8104000F0AFBF00BFA00A0020100500200AB90020D9
:203A6000704708B508461146FEF7E2FB002008BD0FB400B583B004AB53F8041B04481A4606
:203A8000019300F04BF803B05DF804EB04B070472005002038B504461546006809F0BAFC0F
:203AA000236800201D44256038BD00BF0EB430B586B009AB53F8041B084D01901A4601ACD3
:203AC00004A803930495059400F028F8019B00221A7006B0BDE8304003B07047953A000016
:203AE000102970B50C46054602D80AE0102C0BD92B681022084968689847103C0028F5D0E9
:203B000070BD08460029FBD022462B6868680249BDE87040184700BF6CE200002DE9F04F0A
:203B2000834688468FB001924FF0000998F80030002B00F0E380252B08BF45461DD044467D
:203B400003E0252B00F045812C466378651C002BF7D1454500F0D280C8EB05064146324632
:203B6000DBF80030DBF804009847002840F03D826378B144002B00F0C1806B7805F1010867
:203B8000002B00F0BB800025A3F12002102A1BD8DFE802F0171A1A141A1A1A1A1A1A1A11E8
:203BA0001A0E1A1A090045F0100518F8013FEBE745F00105F9E745F00605F6E745F00805BA
:203BC000F3E745F00205F0E7A3F13102082A00F2D580002404EB840403EB440418F8013F97
:203BE000303CA3F13002092AF4D92E2B00F0CE804FF0FF366C2B00F0E280682B00F0448157
:203C0000782B00F28180DFE813F079007F007F007F007F007F007F007F007F007F007F00D5
:203C20007F007F007F007F007F007F007F007F007F007F007F007F007F007F007F007F0094
:203C40007F007F007F007F007F007F007F007F007F007F00E2027F007F007F007F007F000F
:203C60007F007F007F007F007F007F007F007F007F007F007F007F007F007F007F007F0054
:203C80007F007F007F007F007F007F00DF027F007F007F00DC02D902D6027F007F007F00BE
:203CA0007F007F007F007F007F007F007F007F007F007F007F007F007F00D3027F007F00BE
:203CC0007F007F007F007F007F007F00D0027F00CD02CA02C702C402C1027F00CA027F00E2
:203CE0007F007F007F00BE02BB027D007F007F00B8027F00B5027F007F00B20248460FB060
:203D0000BDE8F08F45F4407505F4E063B3F5806F08F1010800F06E815FD9B3F5C06F00F0DE
:203D2000A181B3F5E06F00F09681B3F5A06F7FF4FDAE019A012C136888BF04F1FF3402F1E9
:203D400004028DF8203098BF0024EB07019200F1F38121465846FFF7C3FE002840F0458149
:203D60000122DBF8003008A9DBF8040009EB02059847002840F03981254497E12A2B00F083
:203D80008D802E2B4FF000047FF432AF98F8013008F10101A3F13002092A00F28D808846A4
:203DA000002606EB860603EB460618F8013F303EA3F13002092AF4D96C2B7FF41EAF98F83B
:203DC00001306C2B00F05A8108F1010845F0600516E745457FF4C0AECFE6B3F5807F70D0B0
:203DE000B3F5407F7FF4A2AE0198B24B15F4804FB14F18BF1F4603460168043301930A4622
:203E00000023002900F0AB810DF1330E7046110941EA03714FEA131C02F00F0663460A4624
:203E2000B95D00F8011D52EA0301F0D1BEEB000600F097810336B4424FF078034FF0300244
:203E400000F8013C00F8022C4FF023038CBFA41B0024EA0700F8033CA0F1030700F1BA8185
:203E600021465846FFF73CFE002840F0BE803946DBF800303246DBF804009847002840F06F
:203E8000B48009EB060511E198F80130682B00F0B58108F1010845F04005B1E6019A08F1DC
:203EA0000108134614680433002C0193B8BF45F0010598F8003098E62A2B00F0A681884603
:203EC00096E6002EABBF25F0100501230596059315F40053049305F0E00300F0F580402BB2
:203EE00000F0A88200F29B81002B00F06182202B40F08A82019991F900200431D317019120
:203F0000002A73F10001C0F25F82CDE902230023069305F4C053B3F5805F00F0F080B3F54D
:203F2000C05F00F0CC81B3F5006F00F0ED810DF1360A002741F60803059941F208028F425D
:203F400003EA050380F08E819342A1EB070600F0518241F60802934207EB060100F08D81AF
:203F600000231A460293049B83B1069B002B40F0928105F00603022B00F053824F48062B8F
:203F800008BF0246029B08BF01230293029B0B449C428CBFE41A002415F00103049304D149
:203FA000E80640F11D8226441C46029838B11146DBF800300246DBF804009847A8B9102EFD
:203FC00007EB090540F2C381B14603E0B9F1100F40F2BF81DBF8003010223949DBF80400C8
:203FE0009847A9F110090028F0D04FF0FF300FB0BDE8F08F019A1346D2F800A004330193CD
:20400000BAF1000F00F0E8819AF8007037B1574617F8013F002BFBD1CAEB0707002E02DBF2
:20402000B74228BF3746BC428CBFE41B0024E9072BD421465846FFF753FD0028D5D1514618
:20404000DBF800303A46DBF8040098470028CCD107EB09052AE0019A136804320192C3F8BE
:20406000009063E5DBF8003001221649DBF8040098470028B9D109F1010957E598F8023079
:2040800045F0800508F10208BAE55146DBF800303A46DBF8040098470028A6D12146584650
:2040A00007EB0905FFF71CFD00289ED104EB05093CE500BF8CE20000A0E20000C4E20000E7
:2040C0007CE20000D0E20000402B00F0AE8100F2B680002B00F06181202B40F0E080049AA8
:2040E000019906920A780023CDE902230B460433019305F4C053B3F5805F7FF410AFDDE967
:204100000223134300F09D810DF1360307939A46DDE90223D00840EA4370DE0802F00701E5
:204120003346024630310AF8011D52EA0301F1D1079BCAEB0307FDE6DBF80030012208A920
:20414000DBF80400984700287FF44FAF2146584609F10105FFF7C4FC0028A7D045E70DF18C
:204160003300302300F8013C0426013863E645F4C855C9E545F41065C6E545F48065C3E5B5
:2041800045F48855C0E545F4E065BDE545F48135BAE545F40075B7E545F40245B4E545F41A
:2041A0002455B1E545F4A065AEE545F4C135ABE545F4B245A8E545F4A135A5E545F4844508
:2041C000A2E545F442459FE545F4E1359CE545F4C06599E53946DBF800303246DBF8040097
:2041E000984700287FF401AF2146584609EB0605FFF776FC00283FF459AFF6E698F8023028
:2042000045F0200508F10208FAE4019998F802300A4604320E68019208F10208EAE4602B1C
:2042200000F0C680802B40F0EF80019B073323F0070303F108020192D3E9002360E6602BCA
:2042400000F0AB80802B2AD1049B0693019B073323F0070303F108020192D3E90023CDE94C
:20426000022356E6934200F0CD8041F608020026934207EB06017FF473AEDDE902231343C1
:204280003FF46EAE744B15F4804F744A18BF1A460223029367E601230293714A76E605F473
:2042A000C053B3F5805F00F0D080B3F5C05F40F0AE8000230022CDE9022300230693694B6F
:2042C00015F4804FDDE90201674E024618BF1E460B46134300F0B5800DF1360307939A4688
:2042E00002460B46110941EA03711F0902F00F003B460A46315C0AF8011D52EA0301F1D1C3
:20430000079BCAEB030715E6DDE9026732463B46134300F096800DF136039A460793304696
:2043200039460A22002308F0F7FB3032304639460AF8012D00230A2208F0EEFB06460F466D
:2043400056EA0703EBD1079BCAEB0307F2E556B1B1464A46DBF800304449DBF8040098474B
:2043600000287FF442AE3A46029F51462F44DBF80030DBF804003D46984700287FF435AECD
:20438000049B3544002B3FF491AE21465846FFF7A7FB00283FF48AAE27E6019A13680432DF
:2043A0001946049B01920022CDE902120693B0E501990B460A6804330193002A4FEAE27372
:2043C00073F10001BFF6A1AD524263EB4303CDE90223012306939CE5DFF898A006271DE6F5
:2043E000214658460592FFF77BFB059A00283FF4DCADFAE5002E08BF0126002302931A461F
:20440000B919B0E50126F8E7002200237DE5002306931F4600220023CDE902230DF1360A09
:2044200088E50123124A0293B0E5049A019906920A8858E60199B1F900200431D3170191B0
:204440005EE500270DF1360A74E500230022CDE902230023069352E6B4E20000B8E2000017
:20446000BCE200008CE20000A0E200007CE20000C0E20000C8E2000010B50446006830B1AC
:20448000002100F095FA54F8040F0028F8D110BD704700BFF0B5038883B005465BB14A2BBA
:2044A00004D188291BD0012003B0F0BD00230380032003B0F0BD194800F0F0FB044630B17A
:2044C000A168201D00F07EF92468002CF8D1144B01221A704A2301202B8003B0F0BD0F48B2
:2044E000019200F0DBFB04460028F3D0019A031D9A4205D02468231D002CEBD09A42F9D169
:204500002146064800F01EFC064E6269A369376832600BB1E06998473760DBE74C150020C2
:204520001D3400205815002010B5064B002406481C7000F0AFFB2146BDE81040034800F038
:2045400037BA00BF1D3400204C1500202805002070B504460D48049D0078A261E361656182
:2045600030B9A1600A482146BDE8704000F098BB084D094B2E68201D2B6000F023F92E605F
:204580002146BDE87040024800F08ABB1D3400204C150020581500202805002010B5044CFF
:2045A00082B024680094FFF7D3FF02B010BD00BF5815002070B5094B04461B783BB1084D7F
:2045C000084B2E6804302B6000F006F92E602146BDE87040044800F063BB00BF1D34002070
:2045E00058150020280500204C15002070B5094B04461B783BB1084D084B2E6804302B6021
:2046000000F0F4F82E602146BDE87040044800F047BB00BF1D34002058150020280500202C
:204620004C15002010B50A4B04461B783BB9C36003612146BDE81040064800F083BB04307B
:2046400000F0FAF82146BDE81040024800F07ABB1D3400204C15002010B50E4C2368B3B1AD
:20466000FDF7A2FB226892E80A0092680B44191A4AB114685368926823441B1A994228BF95
:204680001946002AF5D1044B0144196010BD024A136010BD50150020541500202DE9F04110
:2046A000038805467BB1592B08D1872912D0822920D059232B800120BDE8F081002303806A
:2046C0000320BDE8F081254A0120136059232B80BDE8F081214F39680029EAD0CB689A425E
:2046E00003D024E0CB689A4220D189680029F9D13960DEE7194F4FF000083C68002CD8D07A
:20470000002604E0A3682646002BD2D01C46204600F04CFA0028F5D022468821E06800F017
:20472000E3F978B10E4800F00BFAEBE739608B68002BBED0D86882420BBF9B6819468B60F7
:204740009B68F5E7E060A3682EB1B360C4F80880FFF782FFD1E73B60F8E700BF501500200C
:204760003805002010B50446104800F0E9F91049E3680A684BB142B194420FD0134601E0AF
:204780009C420BD09B68002BFAD10A4BA2601B680C60E360BDE81040FFF75EBF054B1B6803
:2047A000E360BDE81040FFF757BF00BF380500205015002058150020014800F0C1B900BF15
:2047C0003805002010B5044600F0DCF92046BDE81040FFF7C7BF00BF10B5044600F0DAF940
:2047E0002046BDE81040FFF7BDBF00BF10B5044600F0D6F92046BDE81040FFF7B3BF00BFDD
:20480000C068B0FA80F04009704700BF05C81044704700BF024B1868003018BF0120704754
:2048200050150020024B186808B1024B18687047501500205415002010B50F4B04461A68F0
:20484000824213D072B19368984208BF134605D043B19A68944201D01346F9E7A2689A60EA
:20486000FFF7FAFE0023A360E36010BD82681A60FFF7F2FEF6E700BF501500202DE9F84358
:20488000DFF8A480274DD8F800702E68874247D077B33B4601E0002B3BD01B689842FAD109
:2048A00033B3837B8946044623B3002383736FB1BC424FF0870106D0BB7BDB0703D52246F9
:2048C000384600F033F83F68002FF1D1A3683BB14C4505D02C600022832104F10C00984718
:2048E000D8F80000844208D12368C8F800302E60BDE8F88338468442F6D00028F7D00368BC
:204900009C4208D0002BF2D01A68944204D01346F8E7BDE8F883034622681A602E60E7E7C7
:204920003B46BDE7581500205C15002070B586687EB104460A4802230460A37304F10C00B6
:204940000D46B0470238012804D9832D02D00123A37370BD21462046BDE87040FFF78EBF7F
:204960005815002070B50C4A0C4B146800251D7084B1012601E0246864B1E37B002BFAD079
:20498000A673E573204600228221FFF7CFFF2468002CF2D170BD00BF5C150020203400204B
:2049A000024B1878421C1A70704700BF2134002070B50F4D2C68844206D034B1234600E068
:2049C0001BB11B689842FBD170BD0028FCD00346084E04600A46346801200021987399816B
:2049E000184681212B60FFF7A1FF346070BD00BF5C1500205815002070B407480749084AE3
:204A00000023084D084C8A2603700B6013602E70237070BC704700BF1F3400205C150020F2
:204A200058150020213400201E3400202DE9F041234D2B780BB1FFF795FF224E3378BBB1DB
:204A40002148224F0278013B02EB4201890001327C1802F01F020270A068DBB233707F5CAE
:204A6000D4F8048098B1812F06D0827BD20705D428781844BDE8F081012383734246394635
:204A8000FFF754FF337828781844BDE8F081104A146834B9ECE7A37BD9070AD42468002CE6
:204AA000F0D02B78002BF6D0FFF75CFFA37BD907F4D5424639462046FFF738FFEEE700BF5C
:204AC000203400201F3400201E340020601500205C150020024A034B10781B78184470478F
:204AE0001F34002020340020F0B40C4D2C78202C11D00B4B0B4E1B78671C234403F01F03C0
:204B000003EB43039B00F418A06062602F70F1540020F0BC70470120F0BC70471F3400209A
:204B20001E3400206015002038B5837B034CDB07256801D5FFF7FAFE256038BD58150020FA
:204B400038B1837B013B012B03D8024A01231370C37370472034002005F06ABE10B5084CA1
:204B6000206858B100224368816822609847236823B1BDE81040186805F05CBE10BD00BF1E
:204B8000E016002010B541600446FDF70DF9206010BD00BF90E80C0013440360704700BF95
:204BA00010B50446FDF700F9206010BD10B50446FDF7FAF823686268C3F10103184490427C
:204BC00094BF0020012010BDF8B504880546672C0BD0792C04D0CCB1002303800320F8BD0E
:204BE00085291AD11D4C002323601C4C264604E00A2814D023687E2B2ADD194800F0D4F8E7
:204C0000431CF5D167232B800120F8BDFFF7C8FE144A124B10701C60E7E70120F8BD0F4CF2
:204C2000114F23680F4A581C0026117820603A463046FE54FFF758FF0C4B32461868852103
:204C4000FFF752FF0028CED179232B800120F8BD05495A1CC8543260CFE700BF64170020A7
:204C600068170020FD3C0020701700205815002008B505490548802200F08EF8BDE80840AB
:204C800000210348FFF794BEE4160020681700204805002000230360704700BF006870471F
:204CA00010B404685CB1A14223D023680BB906E0134699420FD01A681C46002AF8D100239F
:204CC0000B6002680AB910E01A461368002BFBD1116010BC70475CB10A68226000221A60E9
:204CE00000230B600268002AEFD1016010BC70470C46226823460260F0E700BF30B4056860
:204D000065B1A94219D02B682C460BB906E01346994207D01A681C46002AF8D10D6001604A
:204D200030BC704744B10A68226000221A6005680D60016030BC70470D462A682B460260B5
:204D4000F3E700BF10B404685CB18C4212D023680BB906E01346994205D01A681C46002A81
:204D6000F8D110BC70472CB11A68226000221A6010BC70470A680B460260F7E703682BB19D
:204D800000201B680130002BFBD170471846704700B10068704700BF0023013A01600271BB
:204DA00043718371704700BF0346807959791A79091A114207D010B4411C1C680A40205C76
:204DC0009A7110BC70474FF0FF307047013A0A44914230B414D20C4625786378023403EB0C
:204DE00005239BB2184480B2834284BF013080B2A242F1D8CB43134423F00103023319448A
:204E00008A4201D030BC7047137830BC1B02184480B2834284BF013080B2704730B5134BCB
:204E2000134D1C782B796A79C4EB0323134483B09BB2ADF80630BDF8063005F1080118442A
:204E4000202280B2FFF7C2FFBDF8062004F12801294492B2FFF7BAFF18B94FF6FF7003B096
:204E600030BD40BA80B203B030BD00BF223400208C34002002200146F8B5304F304D3A78A0
:204E8000304E2832AB185B783070DB0003F1070E4FF0000C704543DC8318EC5C2B44012C82
:204EA00012D019D3632C07D1BCF1000F41D101F037FFA0B90120F8BD04F0C004802C19D04C
:204EC000C02C26D0402C1FD0597802310844C1B208464FF0010CDDE70130C1B2F8E73B783E
:204EE0003278283313441D446B780020134402333370F8BDBCF1000F19D1024402210420DB
:204F000006F0A8F80220F8BDBCF1000FD2D03170D0E7BCF1000F08D12B7EFF2BEDD1C9E798
:204F2000BCF1000F07D10020F8BD3170F4E73170E3E73170BBE73170F5E700BF223400202C
:204F40008C340020243400203A20FFF767BF00BF08B506F0D3FB06F069F900F031FB064A7F
:204F6000064B4FF48061118003F5A07100221A8220338B42FBD108BDFA330020943800207A
:204F8000F8B5114E3478F4B1104F04F127033D88AB4203DB00233B803370F8BD0C4BA5F183
:204FA00028021919121B184608F0AAFA03462C1BA4B2A4F12802101200213C8003F8232C80
:204FC00003F8240C3170F8BD223400207C340020B4340020F0B50746DFF884C0BCF80060E1
:204FE0000136B6B2B6F5FA4F2DD2350245EA1625ADB2194A9646134602F5A074188A203387
:20500000A842EDD09C42F9D1ACF800600023108A203220B101330A2BF9D10020F0BD5C0100
:205020000EEB0406358271820B4B87B1354638687968BA68FB680FC5084A0EEB0403127903
:2050400030461A75F0BD10254FF48056D1E71F517760B760F760EFE7943800208C3B00203A
:20506000FA3300202DE9F04F042883B020D0914BDFF86492DFF870A20528C9F80030CAF8CD
:2050800000301FD013F83C2CA3F13C0402F0F002602A2ED0884D894EDFF84482884F0023FB
:2050A0002B8088F800303B70337003B0BDE8F08F844C814D814E2388002B41D1DFF82082A2
:2050C0007F4FECE7804A1268128A002AE2D07F487C4C794D794E00220C3B0821C9F80030D4
:2050E000CAF80030026022802A80317001F09CFCE1E72279704D61791202288856188642F2
:2051000058DC207A28310A44FF282A8052D0704E363BDFF8CC816A4FA2793360002388F8CA
:2051200000303B70002A5AD101233B70FFF7A2FE012800F0A78046D3022850D15F4E34E075
:20514000614A644C126803F1080149BA0020177DA185E085118A303321859BB2508AA3F1DC
:2051600028014FEA212EE77111272B8084F804E060856171A77104F118050FCA85E80F00AD
:20518000294604F1080006F00DFA534B04F13C0238461A60FFF742FEC04380B278B1E085E4
:2051A000002360222270637063800023337003B0BDE8F08F414EDFF82881414F6FE74FF62B
:2051C000FF73E385ECE798F8003003F1280222445178083303EBC103326088F800303F485F
:2051E00006F0BAF8002800F02D813368DFF8D0B03B491A783C2A00F20681DFE812F0DB00B6
:2052000004010401040104010401040104010401040104010401040104010401040104013E
:205220004500040104010401040104010401040104010401040104010401040104010401DE
:205240000401040104010401040104010401040104010401E90043000401040104010401DC
:20526000040104010401040104010401040104010401BC004300A70048F2FE03218999429B
:2052800000F044810D4E0AE7FFF77AFEE38D1120A071104E002B40F01B81B6F82AB0BBF164
:2052A000000FEFD0084F0F4B0E4E3B60248D06F5A07820E0C83400207C34002074380020FC
:2052C00023340020903800207C38002084380020783800208C34002080380020A43400203F
:2052E000223400209438002080340020203646453E6000F0A180338A002BF7D05B45F5D1D3
:20530000738A10227A480BB1A342EFD133682BB973681BB9B3680BB9F36823B1314608F090
:2053200047F80028E2D12B88724A7348734C744E303B2B8002210023C9F80020CAF8002089
:2053400003602380317001F06FFBB4E63A7890076DD5500657D442F040028BF800200191FC
:20536000FFF788FD012801998CD053D302283FF4E5AE33683DE73A20FFF750FD4FF6FF736A
:2053800098427FF47FAF98F800302833E05C01F057FA98F800302833E2185178E05C05F0EA
:2053A00035FE01283FF46EAF2B88554E002B7FF4FCAE74E63A780191D10724D442F0010200
:2053C0008BF80020FFF756FD01280199CDD159E73A7802F0040000F0FF0EA0B998F80000B2
:2053E00042F0040200F12803234493F803C08BF80020BCF1000F73D15A78083000EBC20248
:205400000A703360F5E61A1B0121042005F022FE3B4ECAE698F8002002F1280323445878D6
:20542000083202EBC002336088F80020E1E642F002028BF8002092E700220421012005F0DA
:2054400009FE7BE62F4806F043F800287FF4CDAE227E2D4BFF2A3FF40FAF48F2FE00198B18
:2054600081423FF409AF198981424FD081B95A8972B99A8962B9DA8952B91B8A43B9628A79
:20548000214B2AB99A8A1AB9DB8A002B3FF4FAAE228B1D4B82B95A8B72B99A8B62B9DA8B56
:2054A00052B91A8C42B95A8C32B99A8C22B9DB8CB3F5807F3FF4E6AE2B88B3F5A06F63D8F4
:2054C000E379114A012B58D9013BD3710C4E6CE6FFF7A4FC4FF6FF7398427FF4D3AEDCE6AF
:2054E00000F12A027146042005F0B4FD044E5CE694340020BC3400208438002090380020BE
:2055000074380020A43400208C3400202189224B79B9598969B9998959B9D98949B9198A5F
:2055200039B9598A29B9998A19B9DB8A002B3FF4A9AE218B184B81B9598B71B9998B61B910
:20554000D98B51B9198C41B9598C31B9998C21B9DB8CB3F5807F3FF495AEFF2A3FF492AE50
:205560000E4805F0D9FE024600287FF48BAE0221012005F06FFD0A4E17E600221146032057
:2055800005F068FD064E10E64FF4A0620021022005F060FDD2E500BF8C340020A43400203F
:2055A0007438002040BA80B2704700BF020C131243EA02239BB240BA43EA0040704700BFCE
:2055C000704700BF08B5064801F028F9054B00220120FD21187099705A70DA7008BD00BF5E
:2055E000716000006C19002030B414780B7A84F00204A34215D00B891BB94B89B3F57F4F4A
:2056000030D01F4D01222C6801F10803824004F10801296003CBD3B220606160184630BC43
:2056200070474C7A53789C42E5D18C7A93789C42E1D1CC7AD3789C42DDD10C7B13799C42DF
:20564000D9D14C7B53799C42D5D18C7B93799C42D1D1D379CA7B9A42CDD1032101FA00F3D9
:20566000DBB2DBE78B89FE2BCBD1054CCB892268022122F8023B01FA00F32260DBB2CDE7A8
:20568000F817002010B5124C0220A17904F090FDA379112B09D0062B07D03A2B0FD0BDE8D9
:2056A00010400021012004F083BD218D638D01209942A8BF1946BDE8104004F079BD218DF7
:2056C000012049BA89B2BDE8104004F071BD00BF8C34002010B5084C2378012B01D00020E4
:2056E00010BD01460822A01C07F062FE00280CBF2046002010BD00BF6C19002008B50146AB
:20570000102004F063FD044B00219B6803489847BDE80840FCF7E0BCE8E3000021570000A9
:2057200010B50C461146204606F032FB044B1B6813B19B6820469847024B1C6010BD00BF3F
:20574000D01E00207C1900202DE9F041154D00232A469478713234B101330C2BF9D14FF042
:20576000FF30BDE8F081C3EBC30403EB04142F197970064604F076FCDFF830800A4A98F81B
:2057800000301168C01A2E55B870CC1804F06AFC98F800202146821AF81C07F03BFEB87876
:2057A000BDE8F0818019002078190020263400202DE9F84F074615465ABB88469146584E8A
:2057C0004FF0FF3436F8063C9BBB631C48D00135022D06F1B806F5D1621C00F09E80B825B1
:2057E00005FB04F5DFF840910F2009EB0506A6F81280378204F0F6FC0146304604F01EFD3F
:2058000005F1180048444021FFF7BCF92046BDE8F88FDFF8148100244646328ABA4221D08B
:205820000134022C06F1B806F7D14FF0FF30BDE8F88F3046FFF7BAF9002831D0394B26F804
:20584000069C03F24C51E8B29A7822B11A78824208BF83F8029071338B42F5D1631CB6D12E
:205860006CB2B4E7738A002BDAD00F2004F0BAFC0146304604F0E8FC0028D1D0E6B229465F
:205880003046FFF761FF011E11DB0029CDDDB82303FB04839A8A60B20A449A82BDE8F88F32
:2058A000611C94D136F8063C002B90D1D8E74FF0000B5F46D946DFF868A03AF8063CF3B146
:2058C000BC421CD05046FFF771F9C0B15FFA87FEB82303FB0E83134AA3F8129002F24C5005
:2058E0004FF0000C937833B11378734504BF82F802900CF1010C71329042F3D1E3440137BA
:20590000022F0AF1B80AD8D1BBF1000F8DD029463046FFF719FF0146B7E72046BDE8F88F6E
:205920001418002080190020FC1700202DE9F04715090F2D06469A4602F00F042CD00F2C20
:2059400036D0A046A9466719D5BB0F2F03DD5CB9E5B9BDE8F087C7F1100206EB090000218A
:2059600007F032FE002CF3D0DFF87490C8F11000D9F8007030443946224607F04BFD022C64
:2059800020D03C44C9F80040BDE8F08751463046BDE8F04705F092BE0F2C4FF0100918D0D1
:2059A0004A464D46A046A718304607F033FDCCE74FF01008A94605F110074446002DD3D022
:2059C0002A46F1E70A2DDCD8FF22FE23F2723373D7E74D46C8464C4620272A46E4E700BF16
:2059E000F81700202DE9F04F0F2089B0DFF81083B84D04F0F7FB4FF0000A04F0C3FC88F8EA
:205A000000A085F800A004F019FBB34E3060042004F0D6FB3368B1491C7800B25A78086032
:205A200004F0F801C02942EA042277D0E02964D129789F7893F80490D878C2F30A044B1D67
:205A400040EA072021464A462B70FFF7B1FE411C074660D0A24AB82303FB0023D346CDF81E
:205A600000A0B3F814A00123A24534BF4FF0000A4FF0010A019304F0F5FA2B78954D8342D5
:205A800049D804F0EFFA2B7898F80080C51A08EBC909944AA944B9F57A7F15603BD8BBF10B
:205AA000000F06D031680BEB080019442A4607F0B1FC002C00F0DC80009B43B1884AB82345
:205AC00003FB072308EB050292B29A821A84BAF1000F40F01981019BEBB9834B45441D80EE
:205AE000824C236823B1FFF7CDFD23685B68984700F0BAFE09B0BDE8F08F57465446DFF8F9
:205B0000FCB1CDF800A02A78995C01F0E00060284AD041291CD009B0BDE8F08F29789F787E
:205B2000D878C2F30A040B1D40EA0720524621462B70FFF73DFE07460130ECD0684AB82347
:205B400003FB072202F1220B012233680092DAE75946501CC0B2034403F12000D3F800A0AA
:205B6000D3F80490D3F808C0D3F80CE010338342C1F800A0C1F80490C1F808C0C1F80CE0A8
:205B800001F11001EAD118685B6808604B6098F800302932283388F80030009B4FF0000AE7
:205BA0002A70D146019366E7981890F801A002321344DFF850914FFA8AF2002AC9F8003057
:205BC000B8BF01330192B8BFC9F80030CA065AD501F0080303F0FF00002B40F0C681D9F8BF
:205BE00000301A461B78C3F3830343F060038BF8003012F801EBABF802004FEA9E0303F095
:205C0000300343EA8E13C9F800208BF8013001F0040303F0FF0202923BB9D9F8003013F86E
:205C2000012B8BF80620C9F8003011F0030100F0A1802F4B5B5C8BF807301AF0400FCAF387
:205C4000011300F07581019A002AC0F2B0810021002B00F09880274A1078012800F0CD81EE
:205C6000254A00239A4699461360009B019302E7019B002B3FF431AFBAF1000F3FF44BAF87
:205C8000194B1C802CE70B0700F17881D9F80030184633F8012F9B78ABF801208BF80330AE
:205CA00010F804EB9BF801204FEA9E0303F0300C02F00F024CEA8E1E03F00F0343F06003B0
:205CC0004EEA0202C9F800008BF800308BF801209DE700BF2634002078190020F4170020D7
:205CE000FC170020CC1E00207C340020D01E002004E300006C190020F01700208C340020F6
:205D000025340020F8170020B82101FB07F1DFF844A3C7480AEB010319461A8C22319C82D2
:205D200007F078FBC34EDFF808B306F24C5916F8012C22B116F8033C9F4200F0488171361D
:205D4000B145F4D100221046B823FFB203FB07AAB94BAAF8122003F24C519A781AB11A78FC
:205D6000BA4208BF987071339942F6D1019B002B86D1B2E6D9F8003013F8012B8BF807207A
:205D8000C9F8003059E719460BF108020392AB4A0F20D25C0591049204F024FA049A034661
:205DA00005990398FFF7C2FD0AF0080303F0FF010AF00302002B37D01AF0040F0FD1A049E6
:205DC000531E0988012BADF81C1040F228819D4900238A5C0BF1180007A9FFF7A7FD98F80C
:205DE000002002F1280388F80030029B002B41D1D9F800303268DFF860929B1A2B70002CFB
:205E000000F0A480A4F128031A128BF805308BF804209BF80630112B00F0CF80009B4FF005
:205E2000000AD146019326E61AF0040F00F0D780019B002BC0F2EC80DFF820A29AF80030FD
:205E4000012B7FF40DAF9AF801308B427FF408AF7A497D4B8A5C10200192C3F800A004F0AA
:205E6000C1F9019A03460AF102010BF11800FFF75DFDB4E7D9F80030197801F0F801F029F2
:205E8000B8D111218BF80610187800F0F301F03900F00400C0B20329C0D8DFE801F03D33BF
:205EA0002202597802330909A1F5756189B2090241F0F001ABF8281013F8011C01F00F01CE
:205EC000A1F5756189B2090241F0F001ABF82A10C9F80030002800F0C380303288F80020C3
:205EE00088E759780433A1F5805189B2090241F0F001ABF8281033F8021CC9F80030ABF8A4
:205F00002A10E7E7B3F801100433ABF8281013F8011CA1F58051D5E7B3F801100533ABF8C9
:205F2000281033F8021CC9F80030ABF82A10D1E7464A0F20D25C039204F054F9039A0346B1
:205F400043490BF10800FFF7F1FC2DE704F08AF899F8002098F80030801A0344283B1A1263
:205F60008BF805308BF8042053E7002360228BF800208BF80130ABF8023048E6D9F8002098
:205F8000602310468BF8003010F8013B03324FEA930E0EF0300E03F00F034EEA03038BF820
:205FA00001300388C9F80020ABF802302FE631682A780A44917809094AE6BBF804304FF060
:205FC000000AABF82C30009BD146019353E516F8020C31460BEBC00007F01CFAAFE61B4BE9
:205FE000102013F802A004F0FDF85246034618490BF11800FFF79AFCF1E6507888427FF41D
:206000002FAE1148911C02600BF108020392BEE631682B780B44997801F00F010CE7D9F89B
:20602000003013F8011B8DF81D10C9F80030CEE68C340020831900208019002020E300005A
:2060400000E300001CE30000F017002008E300000CE30000FC170020263400206C1900200B
:2060600033F8021BABF82E10C9F8003035E700BF2DE9F04FAE4EDFF8E4B2002387B0337070
:206080008BF80030044604F01FF803F0D7FFA94BDFF8CCA21B68CAF800000BB1FFF7F2FA13
:2060A00004A80190002C00F09382214604F0C6F8A14B1B883E2B32D99BF80070DAF8008001
:2060C000002302379D4D08F807309D4808F102032B60FFF7FFFA002800F0078108F1030347
:2060E0002B6080230293974C62782178130943EA0113DBB2980840EA83135BB210075FFAC0
:2061000083FE5CD16088002859D1080740F0F58012F0F00F40F0F1804FF078095EE0894C6E
:206120009BF800C0A646DAF800300CF10105EDB241221D441A7004F1200877460FCF4745EA
:2061400028606960AA60EB600EF1100E05F11005F3D1BEE803002860696033780CF1290CD6
:2061600028338BF800C033700199102004F02EF8754BDFF8E8911B6898476F4B00283778F7
:206180001B889BF80080ACBFC0F17D056825A3EB0702C8EB0501B8BF15208A4240F3B480EF
:2061A000C0F1780293FBF2F7029203F033FC01388742C0F2D780002007B0BDE8F08F090771
:2061C00003D112F0F00F00F082802A6820681346106003F804EB2B604FF06009A379112BA0
:2061E00068D1E37949F00409402B6AD0FF2B00F00F82012B68D02A6802F8013B2A60238912
:20620000504A3BB953892BB993891BB9D389002B00F034824D48FFF75DFA4D4B18600028F9
:2062200000F07781417818F807304A4A43EA011308F8073045490420FFF7D6F960F03F0064
:20624000C3B20293237E3F49FF2B00F08E8101F118000391FFF73EFA3D4A0399106000285B
:2062600000F0BA8118F8072043780298134340F0040E08F807301831019A00205FFA8EF7B6
:20628000FFF7B2F938432F685FFA80FEA3792822112B32702B4900F00E81DAF800309BF8A8
:2062A0000020FF1A991803F802908BF8007081F801E059E72A6802F8013BE3792A60402BC1
:2062C00094D149F002099AE749F0010997E7296823F03F031343204A0B701288CB1CA1F898
:2062E00001202B604FF0680978E71848FFF7F2F900287FF4F3AE0290F5E62B684FF07009AE
:2063000003F801EB2B6069E7DAF80000E119404407F080F8084B18884044C01B80B203F085
:2063200087FE0198FFF7EAF9012007B0BDE8F08F25340020D01E00207C340020F8170020E4
:20634000A43400208C340020ACE3000094340020F0170020843400208E3400202634002093
:2063600078190020DAF8008099F80070B64E41463A46002308F104000437336007F0C0F871
:20638000F9B20E46B14BB2481A88B24B120A62F03F0288F80020AD4AB3F800E012886D1A77
:2063A000017825F007054FEA1E20AB4F88F8012088F803E02A460EF1010E88F80200214469
:2063C00008EB0600A3F800E03D6089F8006007F021F8701980B203F02BFE03F021FB9F4DE9
:2063E000804600283FF4E7AE0198FFF787F9404603F050FB404603F037FB934B1B68012BDC
:206400003FF4D9AE043B012B7FF6D5AE8F4B90491B882A681B0A63F01F030D788B49137001
:2064200002983B6809881D4420F0070005235170ADB2386089F80030B84632E03E68DAF8FD
:206440000030B242B8BF16469BF80090B8BFC8F8002003EB0900324683F804E006F0DAFF2E
:2064600009EB060080B203F0E3FD03F0D9FA064600283FF4A0AE0198FFF740F9304603F031
:2064800009FB304603F0F0FA6F4A3B6812681D44012AA2F10403ADB23FF48DAE012B7FF63B
:2064A0008AAE6A4B61191B884FEAD50E9D42A3EB0502C3D338E74FF2B002088D030A43EACB
:2064C00000239BB223F00F0080B2904200F0A380498D0A0A42EA012292B202F47F42B2F538
:2064E000704F00F0218103F47F43B3F5704F00F0EB805B4BF0223A7018687B1DC7F8010096
:206500001F46584B30221B88327027F8023B2F60C3E648F2FE03228953499A420FD14B8B34
:206520006BB98B8B5BB9CB8B4BB908314F4A0420FFF75AF8029B0343DBB2029382E6D5F83B
:2065400000C0DFF830E10CF110032B60BEE80F00CCF80410CCF80000CCF80820CCF80C30BB
:20656000237E4149FF2B7FF472AE029A4B7E42F0080E022B5FFA8EFE4A8B00F0AF80002A56
:2065800034D18A8B002A31D1E18B374A71BB118C31B9518C21B992F82410002900F0CF8038
:2065A000218C314A11BB92F82210F9B92F680298394601F8013B52F8233F40F0090EC7F8E2
:2065C0000130137906375FFA8EFE0B712F605DE6274903F033FE6BE548F2FE030A8B9A42FE
:2065E00002D14B8B002B5FD0DDF808E0D5F80080DFF884C008F11007BCE80F002F60C8F861
:206600000000C8F80410C8F80820C8F80C303DE649F00309F3E5B1F82AC04FEA1C2242EA4C
:206620000C2292B222F00F0C84457FF456AFF3233B700A8D4B8D120A1B0A03EB021303F50E
:20664000AA637B70BB1C5BE77C1900207C34002025340020FC330020CC1E00207819002021
:20666000B4340020BA3400208C3400208434002080E3000094340020A4340020138A002B41
:206680007FF4C8AD538A002B7FF4C4AD938A002B7FF4C0ADD38A002B7FF4BCAD029B43F0CA
:2066A0004003DBB20293CDE58B8B002B9CD1CB8B002B99D11831019AFEF796FF029B2F6888
:2066C00003435FFA83FEE1E5F2233B70238D254A1B0A7B7012883B1D7A8011E7002A85D181
:2066E0008A8B002A82D1CA8B002A7FF44DAF0A8C002A7FF449AF4A8C002A7FF445AF8A8C72
:20670000002A7FF441AF91F82620002A7FF43CAF2F6891F82730029A07F8013B42F00B0EFC
:206720005FFA8EFE2F60B1E5F1220F4B3A701A883B1DA7F80120628D120AFA70E0E62868B3
:20674000014601F8013B32F825CF029B071D43F00A0E93785FFA8EFEA0F801C02F608B70C0
:2067600094E500BFB6340020B4340020002849D0F0B5078883B0064657B300273D4606E041
:20678000002F1ADB1FD001370235102D13D073195B78745D03EB0424A4B2002CF0D0002FA0
:2067A000C8BF4FF0FF3708DD214618480235FDF75FF9102DEBD103B0F0BD002DF4D03A200A
:2067C000FBF716FDF0E71248FDF752F90127DBE74288AAB98388002BCFD1C7887FB9038944
:2067E00073B94FF6FF724189914208D1837B427B017BC07B00900748FDF73AF9DBE71F46A2
:206800003D46C4E70448FDF733B900BF58E3000054E3000040E3000030E30000014B1860F3
:20682000704700BFE41E002010B51446FEF7D2FB18B1024BC4611B68836110BD58150020E3
:2068400000B5074B83B08DF80700186828B1054B0DF107021978FEF767F903B05DF804FBD5
:2068600088380020FF3C002008B5002202210448FEF75AF90349044A00230B80137008BDB7
:20688000580500207C3400202234002038B5294C238863B3B3F5A06F24D8274D2B8B6BB911
:2068A0006B8B5BB9AB8B4BB9EB8B3BB92B8C2BB96B8C1BB9AB8C0BB9EB8C9BB100F0E8FA34
:2068C00080B12B7EFF2B13D01C4804F025FDA8B11A4805F029FA58B305F01EFA184B1B6886
:2068E00003B19847174A00231370238038BD38BD134B1B68002BF5D00020F2E70F4804F05C
:20690000EFFF054678B104F0C3FF0028E1D1EB6923B11B6A93F8940001F0BAFA2846BDE801
